:100000000C942A000C9447000C9447000C94470071
:100010000C9447000C9447000C9447000C94470044
:100020000C9447000C9447000C9447000C94CB00B0
:100030000C9447000C9447000C9447000C94470024
:100040000C9447000C9447000C9447000C94470014
:100050000C94470011241FBECFE5D8E0DEBFCDBF12
:1000600010E0A0E6B0E0ECECF4E002C005900D92E8
:10007000A636B107D9F711E0A6E6B0E001C01D929F
:10008000A237B107E1F70E9449000C9464020C9476
:100090000000EF92FF920F931F93CF93DF9383E0C3
:1000A00087BB8FE784BB8FEF81BB8FE18BBB83B7AF
:1000B000836083BF89B7816089BF78943E9A87B196
:1000C0008E6187B986B1856086B9359A379A369A36
:1000D000F0906E003DE7E32E349B43C0F89494B15A
:1000E00085B1349A78940F2D10E0000F111F0E582F
:1000F0001F4FD82FC0E09E01290F311D40E050E076
:1001000060E078E383E190E00E942702F801318308
:100110002083F394F0E8FF1609F4FF2460E020E068
:1001200030E040E050E0E62FF0E0EE0FFF1FEE5829
:10013000FF4F80819181A0E0B0E0280F391F4A1F56
:100140005B1F6F5F603879F7F89487E056954795A5
:10015000379527958A95D1F73093670020936600ED
:100160007894CC9913C0F894809170008F5F80933D
:10017000700080917000883011F4109270007894B3
:10018000E0927100809171008823E1F789B389B30F
:1001900089B389B3A1CF1F920F920FB60F9211248A
:1001A0005F936F937F938F939F93AF93BF9385B329
:1001B000807F85BB809170008823F1F58091650078
:1001C00081508093650080916500882309F04EC0BE
:1001D0008AE080936100809166009091670068EEEC
:1001E00073E00E941302CB016AE070E00E941302E8
:1001F00080936200809166009091670064E670E0F1
:100200000E941302CB016AE070E00E941302809307
:10021000630080916600909167006AE070E00E9440
:100220001302CB016AE070E00E9413028093640025
:100230008DE7809365001AC0809170008130B1F025
:1002400080917000823091F080917000833071F065
:1002500080917000843051F080917000853031F0D1
:1002600080917000863011F0809170008091600064
:10027000813019F48091610014C080916000823057
:1002800019F4809162000DC080916000833019F4F0
:100290008091630006C080916000843051F58091A8
:1002A0006400882311F484E125C0813011F487E7CC
:1002B00021C0823011F48CE41DC0833011F485E438
:1002C00019C0843011F487E215C0853011F485E837
:1002D00011C0863011F484E80DC0873011F487E531
:1002E00009C0883011F484E005C0893011F485E03C
:1002F00001C08FEF82BB80917000882329F4809128
:100300006000813039F525C0809170008130E9F0BE
:10031000809170008230F1F080917000833029F478
:10032000809160008330B1F414C0809170008430FB
:1003300061F080917000853041F0809170008630CE
:1003400021F080917000873029F480916000823024
:1003500009F4929880916000813011F4AB9A11C039
:1003600080916000823011F4AA9A0BC080916000E5
:10037000833011F4A99A05C080916000843009F49B
:10038000A89A809160008F5F8093600080916000E8
:10039000853019F481E0809360008091710088239A
:1003A00029F08091710081508093710080917000DC
:1003B000882311F4AC9817C080917000813011F43B
:1003C000AC9818C080917000823011F4AC9819C0BC
:1003D00080917000833011F4AC9817C08091700048
:1003E000843019F4AC9AAD980DC0809170008530BE
:1003F00019F4AC9AAD980AC080917000863021F44F
:10040000AC9AAD9AAE9803C0AC9AAD9AAE9ABF9131
:10041000AF919F918F917F916F915F910F900FBEE0
:100420000F901F901895AA1BBB1B51E107C0AA1F74
:10043000BB1FA617B70710F0A61BB70B881F991F85
:100440005A95A9F780959095BC01CD01089597FB29
:10045000092E05260ED057FD04D014D00AD0001C5A
:1004600038F450954095309521953F4F4F4F5F4F51
:100470000895F6F790958095709561957F4F8F4F11
:100480009F4F0895A1E21A2EAA1BBB1BFD010DC0B0
:10049000AA1FBB1FEE1FFF1FA217B307E407F50734
:1004A00020F0A21BB30BE40BF50B661F771F881F10
:1004B000991F1A9469F760957095809590959B01A6
:0C04C000AC01BD01CF010895F894FFCFFE
:0604CC00010A0A0A0A20E1
:00000001FF
