:100000000C942A000C9447000C9447000C94470071
:100010000C9447000C9447000C9447000C94470044
:100020000C9447000C9447000C9447000C94410139
:100030000C9447000C9447000C9447000C94470024
:100040000C9447000C9447000C9447000C94470014
:100050000C94470011241FBECFE5D8E0DEBFCDBF12
:1000600010E0A0E6B0E0E4E6F6E002C005900D92F4
:10007000A636B107D9F711E0A6E6B0E001C01D929F
:10008000A637B107E1F70E9449000C9430030C94A5
:100090000000AF92BF92CF92DF92EF92FF920F9348
:1000A0001F93CF93DF9383E087BB8FE784BB8FEFF2
:1000B00081BB8FE18BBB83B7836083BF89B78160CE
:1000C00089BF78943E9A87B18E6187B986B1856081
:1000D00086B9359A379A369AF0906E00AA24A3947E
:1000E0006DE7B62E52E3E52E47E1C42E3BE3D32E57
:1000F000349B43C0F89494B185B1349A78940F2D11
:1001000010E0000F111F0A581F4FD82FC0E09E01AA
:10011000290F311D40E050E060E078E383E190E09A
:100120000E94F302F80131832083F394F0E8FF1674
:1001300009F4FF2460E020E030E040E050E0E62FEA
:10014000F0E0EE0FFF1FEA58FF4F80819181A0E0A1
:10015000B0E0280F391F4A1F5B1F6F5F603879F7C7
:10016000F89487E056954795379527958A95D1F766
:1001700030936700209366007894CC9915C0F8946A
:10018000809170008F5F8093700080917000883044
:1001900011F410927000A09265007894B0927100F2
:1001A000809171008823E1F7C89917C0F894809175
:1001B0007000813059F4809172008F5F80937200DB
:1001C00080917200883111F4109272007894E0925C
:1001D0007100809171008823E1F7C99917C0F894E4
:1001E00080917000813059F4809172008150809329
:1001F0007200809172008F3F11F4C0927200789467
:10020000E0927100809171008823E1F7CA991BC0C8
:10021000F89480917000813079F4809173008F5F41
:1002200080937300809173008C3311F410927300EB
:1002300010927400109275007894E0927100809191
:1002400071008823E1F7CB9953CFF8948091700027
:10025000813079F480917300815080937300809194
:1002600073008F3F11F4D0927300109274001092BB
:1002700075007894E0927100809171008823E1F715
:1002800037CF1F920F920FB60F9211245F936F9387
:100290007F938F939F93AF93BF9385B3807F85BBED
:1002A000809170008823F1F58091650081508093E2
:1002B000650080916500882309F06CC08AE0809316
:1002C0006100809166009091670068EE73E00E9483
:1002D000DF02CB016AE070E00E94DF0280936200DF
:1002E000809166009091670064E670E00E94DF02F2
:1002F000CB016AE070E00E94DF028093630080918E
:100300006600909167006AE070E00E94DF02CB0116
:100310006AE070E00E94DF02809364008DE78093C2
:10032000650038C0809170008130A1F0809170002C
:10033000823081F180917000833061F18091700092
:10034000843041F180917000853021F180917000FE
:100350008630F1F4809172006AE00E94D3020E941C
:10036000D30290936100809172000E94D302909317
:100370006200809173000E94D3020E94D302909386
:100380006300809173000E94D3029093640002C0C6
:100390008091700080916000813019F4809161003B
:1003A00014C080916000823019F4809162000DC009
:1003B00080916000833019F48091630006C08091C1
:1003C0006000843051F580916400882311F484E149
:1003D00025C0813011F487E721C0823011F48CE40C
:1003E0001DC0833011F485E419C0843011F487E214
:1003F00015C0853011F485E811C0863011F484E809
:100400000DC0873011F487E509C0883011F484E00D
:1004100005C0893011F485E001C08FEF82BB809167
:100420007000882329F480916000813039F525C05F
:10043000809170008130E9F0809170008230F1F09D
:1004400080917000833029F4809160008330B1F492
:1004500014C080917000843061F08091700085300C
:1004600041F080917000863021F0809170008730DB
:1004700029F480916000823009F4929880916000A4
:10048000813011F4AB9A11C080916000823011F478
:10049000AA9A0BC080916000833011F4A99A05C01C
:1004A00080916000843009F4A89A809160008F5F89
:1004B0008093600080916000853019F481E0809322
:1004C000600080917100882329F080917100815033
:1004D0008093710080917000882311F4AC9819C04A
:1004E00080917000813011F4AC981AC08091700036
:1004F000823021F4AC98AD9AAE981DC08091700006
:10050000833011F4AC9815C080917000843019F4D8
:10051000AC9AAD98F1CF80917000853019F4AC9A07
:10052000AD9808C080917000863011F4AC9AE3CF8A
:10053000AC9AAD9AAE9A809175008F5F80937500EA
:10054000809175008A3F19F51092750080917400B2
:100550008F5F80937400809174008C33C1F410928B
:100560007400809173008F5F80937300809173009B
:100570008C3369F410927300809172008F5F8093C6
:10058000720080917200883111F410927200BF9154
:10059000AF919F918F917F916F915F910F900FBE5F
:1005A0000F901F901895991B79E004C0991F96171A
:1005B00008F0961B881F7A95C9F780950895AA1BA5
:1005C000BB1B51E107C0AA1FBB1FA617B70710F03E
:1005D000A61BB70B881F991F5A95A9F78095909570
:1005E000BC01CD01089597FB092E05260ED057FDBD
:1005F00004D014D00AD0001C38F4509540953095A2
:1006000021953F4F4F4F5F4F0895F6F79095809596
:10061000709561957F4F8F4F9F4F0895A1E21A2EDD
:10062000AA1BBB1BFD010DC0AA1FBB1FEE1FFF1F96
:10063000A217B307E407F50720F0A21BB30BE40BE6
:10064000F50B661F771F881F991F1A9469F760952D
:100650007095809590959B01AC01BD01CF010895E7
:04066000F894FFCF3C
:06066400010A0A0A0A2047
:00000001FF
