:100000000C942A000C9447000C9447000C94470071
:100010000C9447000C9447000C9447000C94470044
:100020000C9447000C9447000C9447000C94DC009F
:100030000C9447000C9447000C9447000C94470024
:100040000C9447000C9447000C9447000C94470014
:100050000C94470011241FBECFE5D8E0DEBFCDBF12
:1000600010E0A0E6B0E0E8E0F4E002C005900D92F8
:10007000A236B107D9F710E0A2E6B0E001C01D92A8
:10008000AE3EB107E1F70E9449000C9402020C94C5
:100090000000EF92FF920F931F93CF93DF9383E0C3
:1000A00087BB8FE784BB8FEF81BB8FE18BBB83B7AF
:1000B000836083BF89B7816089BF78943E9A87B196
:1000C0008E6187B986B1856086B9359A379A369A36
:1000D000F0906A00E0906B00349B68C0349A94B151
:1000E00085B10F2D10E0000F111F02591F4FD82F9F
:1000F000C0E09E01290F311D40E050E06CE37BE041
:1001000083E190E00E94C501F80131832083F394DC
:10011000F0E4FF1619F4FF24EE24E394EEE6F0E099
:1001200020E030E040E050E081919191A0E0B0E02B
:10013000280F391F4A1F5B1F80E0EE3EF807A1F72A
:1001400089019A0186E036952795179507958A9536
:10015000D1F7EE2059F1C80168EE73E00E94B101B9
:10016000CB016AE070E00E94B10180936200C80197
:1001700064E670E00E94B101CB016AE070E00E9489
:10018000B10180936300C8016AE070E00E94B10190
:10019000CB016AE070E00E94B10180936400C80165
:1001A0006AE070E00E94B1018093650089B389B371
:1001B00089B389B389B390CF1F920F920FB60F9274
:1001C00011242F938F939F9385B3807F85BB80915C
:1001D0006000813019F48091620014C08091600049
:1001E000823019F4809163000DC0809160008330EB
:1001F00019F48091640006C080916000843051F54C
:1002000080916500882311F484E125C0813011F4C8
:1002100087E721C0823011F48CE41DC0833011F4D3
:1002200085E419C0843011F487E215C0853011F4DB
:1002300085E811C0863011F484E80DC0873011F4D0
:1002400087E509C0883011F484E005C0893011F4D5
:1002500085E001C08FEF82BB80916000813011F496
:10026000AB9A11C080916000823011F4AA9A0BC041
:1002700080916000833011F4A99A05C080916000DC
:10028000843009F4A89A809160008F5F80936000A9
:1002900080916000853019F481E080936000809146
:1002A0006C0090916D00049690936D0080936C00AB
:1002B00080916C0090916D0080549F4121F41092C8
:1002C0006D0010926C0080916C0090916D00885EC2
:1002D000934010F4AC9823C080916C0090916D0015
:1002E000805D974010F4AC9824C080916C00909190
:1002F0006D00885B9B4010F4AC9825C080916C0029
:1003000090916D00805A9F4010F4AC9820C080916D
:100310006C0090916D008858934118F4AC9AAD9898
:1003200013C080916C0090916D008057974118F434
:10033000AC9AAD980DC080916C0090916D0088557D
:100340009B4120F4AC9AAD9AAE9803C0AC9AAD9A9A
:10035000AE9A9F918F912F910F900FBE0F901F908B
:100360001895AA1BBB1B51E107C0AA1FBB1FA617EC
:10037000B70710F0A61BB70B881F991F5A95A9F74E
:1003800080959095BC01CD01089597FB092E052617
:100390000ED057FD04D014D00AD0001C38F450956C
:1003A0004095309521953F4F4F4F5F4F0895F6F799
:1003B00090958095709561957F4F8F4F9F4F0895D1
:1003C000A1E21A2EAA1BBB1BFD010DC0AA1FBB1F59
:1003D000EE1FFF1FA217B307E407F50720F0A21BCB
:1003E000B30BE40BF50B661F771F881F991F1A9438
:1003F00069F760957095809590959B01AC01BD0162
:08040000CF010895F894FFCF2D
:020408000100F1
:00000001FF
