:100000000C942A000C9447000C9447000C94470071
:100010000C9447000C9447000C9447000C94470044
:100020000C9447000C9447000C9447000C94530226
:100030000C9447000C9447000C9447000C94470024
:100040000C9447000C9447000C9447000C94470014
:100050000C94470011241FBECFE5D8E0DEBFCDBF12
:1000600010E0A0E6B0E0EAE4FAE002C005900D92EC
:10007000AC36B107D9F711E0ACE6B0E001C01D9293
:10008000A238B107E1F70E9449000C9423050C94B3
:1000900000007F928F929F92AF92BF92CF92DF9299
:1000A000EF92FF920F931F93CF93DF9383E087BB71
:1000B0008FE784BB8FEF81BB8FE18BBB83B78360FE
:1000C00083BF89B7816089BF78943E9A87B18E617A
:1000D00087B986B1856086B9359A379A369AF09095
:1000E0007400BB24B394EDE77E2E72E3E72E67E144
:1000F000D62EAA24AA9453E6952E4BE3C42E39E0BB
:10010000832E349B47C0F89494B185B1349A789487
:100110000F2D10E0000F111F0E571F4FD82FC0E0FA
:100120009E01290F311D40E050E060E078E383E15B
:1001300090E00E94E604F80131832083F394F0E814
:10014000FF1609F4FF2460E020E030E040E050E0DA
:10015000E62FF0E0EE0FFF1FEE57FF4F80819181F9
:10016000A0E0B0E0280F391F4A1F5B1F6F5F6038A7
:1001700079F7F89487E056954795379527958A95AE
:10018000D1F730936D0020936C00FF2011F4B092F2
:1001900075007894CC9915C0F894809176008F5FA3
:1001A0008093760080917600883011F4109276006A
:1001B000B0926500789470927700809177008823E0
:1001C000E1F7C8995BC0F89480917600813069F4BA
:1001D000809178008F5F80937800809178008831DB
:1001E00009F045C01092780042C0809176008230BC
:1001F00061F4809166008F5F809366008091660055
:100200008436A9F5B092660032C0809176008330C2
:1002100079F4809168008F5F809368008091680016
:10022000882329F5809168008F5F809368001FC044
:1002300080917600843061F4809169008F5F8093B3
:10024000690080916900883191F4109269000FC0B3
:1002500080917600853059F480916A008F5F809399
:100260006A0080916A00883111F410926A007894D3
:10027000E0927700809177008823E1F7C99958C010
:10028000F89480917600813069F4809178008150F3
:1002900080937800809178008F3F09F042C0D0921F
:1002A00078003FC080917600823061F480916600D2
:1002B00081508093660080916600882391F590922A
:1002C00066002FC080917600833061F480916800D1
:1002D00081508093680080916800882311F5A09276
:1002E00068001FC080917600843061F480916900BD
:1002F000815080936900809169008F3F91F4D09282
:1003000069000FC080917600853059F480916A00B1
:10031000815080936A0080916A008F3F11F4D092DF
:100320006A007894E0927700809177008823E1F763
:10033000CA995BC0F89480917600813081F48091F5
:1003400079008F5F80937900809179008C3311F46C
:100350001092790010927A0010927B003FC0809139
:100360007600823061F4809167008F5F8093670030
:1003700080916700883191F5109267002FC08091BD
:100380007600833061F480917D008F5F80937D00E3
:1003900080917D008A3011F510927D001FC0809100
:1003A0007600843061F4809180008F5F80938000BC
:1003B000809180008C3391F4109280000FC0809166
:1003C0007600853059F4809181008F5F80938100A1
:1003D000809181008C3311F4109281007894E09226
:1003E0007700809177008823E1F7CB998ACEF89443
:1003F00080917600813081F48091790081508093E2
:100400007900809179008F3F11F4C09279001092A9
:100410007A0010927B003FC080917600823061F4B8
:1004200080916700815080936700809167008F3FC3
:1004300091F5D09267002FC080917600833061F4EF
:1004400080917D00815080937D0080917D008F3F61
:1004500011F580927D001FC080917600843061F498
:1004600080918000815080938000809180008F3F38
:1004700091F4C09280000FC080917600853059F4CD
:1004800080918100815080938100809181008F3F15
:1004900011F4C09281007894E09277008091770007
:1004A0008823E1F72ECE1F920F920FB60F921124E0
:1004B0002F933F934F935F936F937F938F939F936C
:1004C000AF93BF9385B3807F85BB809176008823EF
:1004D000F1F5809165008150809365008091650001
:1004E000882309F0D6C08AE08093610080916C0077
:1004F00090916D0068EE73E00E94D204CB016AE037
:1005000070E00E94D2048093620080916C00909110
:100510006D0064E670E00E94D204CB016AE070E0F6
:100520000E94D2048093630080916C0090916D00D2
:100530006AE070E00E94D204CB016AE070E00E94A1
:10054000D204809364008DE780936500A2C08091FF
:100550007600813009F481C0809176008230D1F438
:10056000809166006AE00E94C6040E94C6049093CF
:100570006100809166000E94C604909362008091A1
:1005800067000E94C6040E94C60490936300809195
:1005900067005AC0809176008330D9F4809168005A
:1005A00064E60E94C6046AE00E94C604909361005B
:1005B000809168000E94C6040E94C6049093620065
:1005C000809168000E94C6049093630080917D0032
:1005D0003BC0809176008430D1F4809169006AE05C
:1005E0000E94C6040E94C604909361008091690035
:1005F0000E94C60490936200809180000E94C6040D
:100600000E94C60490936300809180001DC0809179
:1006100076008530F1F480916A006AE00E94C60499
:100620000E94C6049093610080916A000E94C604F3
:1006300090936200809181000E94C6040E94C604CB
:1006400090936300809181000E94C604909364009F
:1006500020C0809176008630D1F4809178006AE0E5
:100660000E94C6040E94C6049093610080917800A5
:100670000E94C60490936200809179000E94C60493
:100680000E94C6049093630080917900DDCF809131
:10069000760080916000813019F48091610014C06F
:1006A00080916000823019F4809162000DC08091C9
:1006B0006000833019F48091630006C0809160006F
:1006C000843051F580916400882311F484E125C0C1
:1006D000813011F487E721C0823011F48CE41DC011
:1006E000833011F485E419C0843011F487E215C019
:1006F000853011F485E811C0863011F484E80DC00E
:10070000873011F487E509C0883011F484E005C012
:10071000893011F485E001C08FEF82BB80917600B3
:10072000882329F480916000813039F525C08091BB
:1007300076008130E9F0809176008230F1F080918E
:100740007600833029F4809160008330B1F414C0C6
:1007500080917600843061F080917600853041F0A0
:1007600080917600863021F080917600873029F4E0
:1007700080916000823009F492988091600081300D
:1007800011F4AB9A11C080916000823011F4AA9AE2
:100790000BC080916000833011F4A99A05C080914C
:1007A0006000843009F4A89A809160008F5F809384
:1007B000600080916000853019F481E080936000D2
:1007C00080917700882329F0809177008150809371
:1007D000770080917600882311F4AC9819C080913D
:1007E0007600813011F4AC981AC080917600823086
:1007F00021F4AC98AD9AAE981DC0809176008330FC
:1008000011F4AC9815C080917600843019F4AC9A3C
:10081000AD98F1CF80917600853019F4AC9AAD98FF
:1008200008C080917600863011F4AC9AE3CFAC9A80
:10083000AD9AAE9A80917B008F5F80937B00809110
:100840007B008A3F09F04BC010927B0080917A00B8
:100850008F5F80937A0080917A008C3309F03FC0DB
:1008600010927A00809179008F5F80937900809157
:1008700079008C33A1F510927900809178008F5F18
:100880008093780080917800883139F41092780054
:1008900080917C008F5F80937C00909178008091A4
:1008A00067009817E1F49091660080917C0098179A
:1008B000B1F4C19A80917D002091680049E1849F44
:1008C000C00111244AEF249F90011124820F931F2D
:1008D000019690937F0080937E0010927C0080911F
:1008E0007E0090917F00892B81F080917E00909115
:1008F0007F00019790937F0080937E0080917E001F
:1009000090917F00892B09F4C1988091750088230C
:1009100069F19091780080916900891760F0909159
:10092000780080916900981709F59091790080917D
:1009300080009817D8F09091780080916A009817FD
:1009400060F09091780080916A00981779F4909106
:10095000790080918100891748F080916C00909116
:100960006D008C5C904110F0C09A01C0C098BF919E
:10097000AF919F918F917F916F915F914F913F9137
:100980002F910F900FBE0F901F901895991B79E033
:1009900004C0991F961708F0961B881F7A95C9F70F
:1009A00080950895AA1BBB1B51E107C0AA1FBB1F5E
:1009B000A617B70710F0A61BB70B881F991F5A95EB
:1009C000A9F780959095BC01CD01089597FB092E5C
:1009D00005260ED057FD04D014D00AD0001C38F4E0
:1009E00050954095309521953F4F4F4F5F4F08955B
:1009F000F6F790958095709561957F4F8F4F9F4F3B
:100A00000895A1E21A2EAA1BBB1BFD010DC0AA1F4F
:100A1000BB1FEE1FFF1FA217B307E407F50720F067
:100A2000A21BB30BE40BF50B661F771F881F991FE2
:100A30001A9469F760957095809590959B01AC012B
:0A0A4000BD01CF010895F894FFCF27
:0C0A4A00010A0A0A0A2001080108100035
:00000001FF
