:100000000C942A000C9447000C9447000C94470071
:100010000C9447000C9447000C9447000C94470044
:100020000C9447000C9447000C9447000C94E40097
:100030000C9447000C9447000C9447000C94470024
:100040000C9447000C9447000C9447000C94470014
:100050000C94470011241FBECFE5D8E0DEBFCDBF12
:1000600010E0A0E6B0E0E8E1F4E002C005900D92F7
:10007000A236B107D9F711E0A2E6B0E001C01D92A7
:10008000A237B107E1F70E9449000C940A020C94D0
:100090000000EF92FF920F931F93CF93DF9383E0C3
:1000A00087BB8FE784BB8FEF81BB8FE18BBB83B7AF
:1000B000836083BF89B7816089BF78943E9A87B196
:1000C0008E6187B986B1856086B9359A379A369A36
:1000D000F0906E00E0906F00349B70C0F89494B183
:1000E00085B1349A78940F2D10E0000F111F0E582F
:1000F0001F4FD82FC0E09E01290F311D40E050E076
:1001000060E078E383E190E00E94CD01F801318363
:100110002083F394F0E8FF1609F4FF2460E020E068
:1001200030E040E050E0E62FF0E0EE0FFF1FEE5829
:10013000FF4F80819181A0E0B0E0280F391F4A1F56
:100140005B1F6F5F603879F7F89487E056954795A5
:10015000379527958A95D1F7FF2011F4EE24E39483
:100160007894EE2059F1C90168EE73E00E94B9015C
:10017000CB016AE070E00E94B90180936200C9017E
:1001800064E670E00E94B901CB016AE070E00E9471
:10019000B90180936300C9016AE070E00E94B9016F
:1001A000CB016AE070E00E94B90180936400C9014C
:1001B0006AE070E00E94B9018093650089B389B359
:1001C00089B389B389B388CF1F920F920FB60F926C
:1001D00011242F938F939F9385B3807F85BB80914C
:1001E0006000813019F48091620014C08091600039
:1001F000823019F4809163000DC0809160008330DB
:1002000019F48091640006C080916000843051F53B
:1002100080916500882311F484E125C0813011F4B8
:1002200087E721C0823011F48CE41DC0833011F4C3
:1002300085E419C0843011F487E215C0853011F4CB
:1002400085E811C0863011F484E80DC0873011F4C0
:1002500087E509C0883011F484E005C0893011F4C5
:1002600085E001C08FEF82BB80916000813011F486
:10027000AB9A11C080916000823011F4AA9A0BC031
:1002800080916000833011F4A99A05C080916000CC
:10029000843009F4A89A809160008F5F8093600099
:1002A00080916000853019F481E080936000809136
:1002B000700090917100049690937100809370008B
:1002C000809170009091710080549F4121F41092B0
:1002D0007100109270008091700090917100885EA2
:1002E000934010F4AC9823C08091700090917100FD
:1002F000805D974010F4AC9824C08091700090917C
:100300007100885B9B4010F4AC9825C08091700010
:1003100090917100805A9F4010F4AC9820C0809159
:100320007000909171008858934118F4AC9AAD9880
:1003300013C080917000909171008057974118F41C
:10034000AC9AAD980DC08091700090917100885565
:100350009B4120F4AC9AAD9AAE9803C0AC9AAD9A8A
:10036000AE9A9F918F912F910F900FBE0F901F907B
:100370001895AA1BBB1B51E107C0AA1FBB1FA617DC
:10038000B70710F0A61BB70B881F991F5A95A9F73E
:1003900080959095BC01CD01089597FB092E052607
:1003A0000ED057FD04D014D00AD0001C38F450955C
:1003B0004095309521953F4F4F4F5F4F0895F6F789
:1003C00090958095709561957F4F8F4F9F4F0895C1
:1003D000A1E21A2EAA1BBB1BFD010DC0AA1FBB1F49
:1003E000EE1FFF1FA217B307E407F50720F0A21BBB
:1003F000B30BE40BF50B661F771F881F991F1A9428
:1004000069F760957095809590959B01AC01BD0151
:08041000CF010895F894FFCF1D
:020418000100E1
:00000001FF
