:100000000C942A000C9447000C9447000C94470071
:100010000C9447000C9447000C9447000C94470044
:100020000C9447000C9447000C9447000C94670212
:100030000C9447000C9447000C9447000C94470024
:100040000C9447000C9447000C9447000C94470014
:100050000C94470011241FBECFE5D8E0DEBFCDBF12
:1000600010E0A0E6B0E0ECEEFAE002C005900D92E0
:10007000AE36B107D9F711E0AEE6B0E001C01D928F
:10008000A638B107E1F70E9449000C9474050C945E
:1000900000007F928F929F92AF92BF92CF92DF9299
:1000A000EF92FF920F931F93CF93DF9383E087BB71
:1000B0008FE784BB8FEF81BB8FE18BBB83B78360FE
:1000C00083BF89B7816089BF78943E9A87B18E617A
:1000D00087B986B1856086B9359A379A369AF09095
:1000E0007600BB24B394EDE79E2E72E3D72E67E132
:1000F000E62E88248A9453E6752E4BE3C42E39E00D
:10010000A32E349B47C0F89494B185B1349A789467
:100110000F2D10E0000F111F0A571F4FD82FC0E0FE
:100120009E01290F311D40E050E060E078E383E15B
:1001300090E00E943705F80131832083F394F0E8C2
:10014000FF1609F4FF2460E020E030E040E050E0DA
:10015000E62FF0E0EE0FFF1FEA57FF4F80819181FD
:10016000A0E0B0E0280F391F4A1F5B1F6F5F6038A7
:1001700079F7F89487E056954795379527958A95AE
:10018000D1F730936F0020936E00FF2011F4B092EE
:1001900077007894CC9919C0F894809178008F5F9B
:1001A0008093780080917800883011F41092780064
:1001B000B092650010927B0010927A007894909231
:1001C0007900809179008823E1F7C8995FC0F8949D
:1001D00010927B0010927A0080917800813069F44F
:1001E00080917C008F5F80937C0080917C008831BF
:1001F00009F045C010927C0042C0809178008230A6
:1002000061F4809168008F5F80936800809168003E
:100210008436A9F5B092680032C0809178008330AE
:1002200079F480916A008F5F80936A0080916A0000
:10023000882329F580916A008F5F80936A001FC030
:1002400080917800843061F480916B008F5F80939F
:100250006B0080916B00883191F410926B000FC09D
:1002600080917800853059F480916C008F5F809385
:100270006C0080916C00883111F410926C007894BD
:10028000D0927900809179008823E1F7C9995CC008
:10029000F89410927B0010927A008091780081305F
:1002A00069F480917C00815080937C0080917C0077
:1002B0008F3F09F042C0E0927C003FC080917800FF
:1002C000823061F480916800815080936800809151
:1002D0006800882391F5709268002FC080917800A3
:1002E000833061F480916A00815080936A0080912C
:1002F0006A00882311F580926A001FC080917800FF
:10030000843061F480916B00815080936B00809108
:100310006B008F3F91F4E0926B000FC080917800EA
:10032000853059F480916C00815080936C008091ED
:100330006C008F3F11F4E0926C007894D0927900B9
:10034000809179008823E1F7CA995FC0F8941092F0
:100350007B0010927A0080917800813081F4809146
:100360007D008F5F80937D0080917D008C3311F440
:1003700010927D0010927E0010927F003FC080910D
:100380007800823061F4809169008F5F809369000A
:1003900080916900883191F5109269002FC0809199
:1003A0007800833061F4809181008F5F80938100B9
:1003B000809181008A3011F5109281001FC08091D8
:1003C0007800843061F4809184008F5F8093840092
:1003D000809184008C3391F4109284000FC080913E
:1003E0007800853059F4809185008F5F8093850077
:1003F000809185008C3311F4109285007894D0920E
:100400007900809179008823E1F7CB997ACEF8942E
:1004100010927B0010927A0080917800813081F4F4
:1004200080917D00815080937D0080917D008F3F81
:1004300011F4C0927D0010927E0010927F003FC0A8
:1004400080917800823061F48091690081508093BE
:100450006900809169008F3F91F5E09269002FC09B
:1004600080917800833061F4809181008150809385
:100470008100809181008F3F11F5A09281001FC003
:1004800080917800843061F4809184008150809361
:100490008400809184008F3F91F4C09284000FC04B
:1004A00080917800853059F4809185008150809347
:1004B0008500809185008F3F11F4C092850078946B
:1004C000D0927900809179008823E1F71ACE1F92AB
:1004D0000F920FB60F9211242F933F934F935F9378
:1004E0006F937F938F939F93AF93BF9385B3807FD9
:1004F00085BB80917800882351F48AE08093610065
:10050000809362008093630080936400E0C08091D8
:100510007800813009F481C0809178008230D1F474
:10052000809168006AE00E9417050E941705909369
:100530006100809168000E9417059093620080918D
:1005400069000E9417050E9417059093630080912F
:1005500069005AC0809178008330D9F480916A0094
:1005600064E60E9417056AE00E94170590936100F7
:1005700080916A000E9417050E94170590936200FF
:1005800080916A000E94170590936300809181001A
:100590003BC0809178008430D1F480916B006AE098
:1005A0000E9417050E9417059093610080916B00CF
:1005B0000E94170590936200809184000E941705A5
:1005C0000E94170590936300809184001DC0809164
:1005D00078008530F1F480916C006AE00E94170584
:1005E0000E9417059093610080916C000E9417058E
:1005F00090936200809185000E9417050E94170564
:1006000090936300809185000E9417059093640089
:100610005EC0809178008630D1F480917C006AE0E1
:100620000E9417050E9417059093610080917C003D
:100630000E9417059093620080917D000E9417052B
:100640000E9417059093630080917D00DDCF80911B
:1006500078008730E1F580916500815080936500D6
:1006600080916500882399F58AE0809361008091EC
:100670006E0090916F0068EE73E00E942305CB013D
:100680006AE070E00E9423058093620080916E0012
:1006900090916F0064E670E00E942305CB016AE050
:1006A00070E00E9423058093630080916E0090911A
:1006B0006F006AE070E00E942305CB016AE070E001
:1006C0000E942305809364008DE7809365008091EC
:1006D0006000813019F48091610014C08091600045
:1006E000823019F4809162000DC0809160008330E7
:1006F00019F48091630006C080916000843051F548
:1007000080916400882311F484E125C0813011F4C4
:1007100087E721C0823011F48CE41DC0833011F4CE
:1007200085E419C0843011F487E215C0853011F4D6
:1007300085E811C0863011F484E80DC0873011F4CB
:1007400087E509C0883011F484E005C0893011F4D0
:1007500085E001C08FEF82BB80917800882359F13A
:10076000809178008130C9F080917800823019F151
:1007700080917800833029F4809160008330D9F42F
:1007800019C080917800843041F0809178008530E4
:1007900021F080917800863029F4809160008230C9
:1007A00051F408C080917800873029F4809160006E
:1007B000813009F4929880916000813011F4AB9AF5
:1007C00011C080916000823011F4AA9A0BC0809110
:1007D0006000833011F4A99A05C0809160008430D4
:1007E00009F4A89A809160008F5F809360008091E7
:1007F0006000853019F481E0809360008091790079
:10080000882329F08091790081508093790080912C
:100810007800882311F4AC9819C080917800813059
:1008200011F4AC981AC080917800823021F4AC9811
:10083000AD9AAE981DC080917800833011F4AC98C9
:1008400015C080917800843019F4AC9AAD98F1CF3E
:1008500080917800853019F4AC9AAD9808C08091E9
:100860007800863011F4AC9AE3CFAC9AAD9AAE9A88
:1008700080917F008F5F80937F0080917F008A3F0F
:1008800009F04BC010927F0080917E008F5F8093B3
:100890007E0080917E008C3309F03FC010927E0074
:1008A00080917D008F5F80937D0080917D008C33EF
:1008B000A1F510927D0080917C008F5F80937C0079
:1008C00080917C00883139F410927C008091800006
:1008D0008F5F8093800090917C00809169009817D1
:1008E000E1F490916800809180009817B1F4C19A6A
:1008F0008091810020916A0049E1849FC001112408
:100900004AEF249F90011124820F931F0196909328
:1009100083008093820010928000809182009091E9
:100920008300892B81F08091820090918300019750
:100930009093830080938200809182009091830045
:10094000892B09F4C19880917700882369F19091EF
:100950007C0080916B00891760F090917C00809101
:100960006B00981709F590917D008091840098178D
:10097000D8F090917C0080916C00981760F0909175
:100980007C0080916C00981779F490917D008091A3
:100990008500891748F080916E0090916F008C5C03
:1009A000904110F0C09A01C0C09880917A00909157
:1009B0007B00825E944050F480917A0090917B009D
:1009C000019690937B0080937A0022C0809166000C
:1009D00090916700019690936700809366008091E4
:1009E000660090916700825E944091F48091780057
:1009F000863039F487E08093780081E08093650049
:100A000003C086E080937800109267001092660021
:100A1000BF91AF919F918F917F916F915F914F9116
:100A20003F912F910F900FBE0F901F901895991B1B
:100A300079E004C0991F961708F0961B881F7A95D5
:100A4000C9F780950895AA1BBB1B51E107C0AA1FD7
:100A5000BB1FA617B70710F0A61BB70B881F991F5F
:100A60005A95A9F780959095BC01CD01089597FB03
:100A7000092E05260ED057FD04D014D00AD0001C34
:100A800038F450954095309521953F4F4F4F5F4F2B
:100A90000895F6F790958095709561957F4F8F4FEB
:100AA0009F4F0895A1E21A2EAA1BBB1BFD010DC08A
:100AB000AA1FBB1FEE1FFF1FA217B307E407F5070E
:100AC00020F0A21BB30BE40BF50B661F771F881FEA
:100AD000991F1A9469F760957095809590959B0180
:0C0AE000AC01BD01CF010895F894FFCFD8
:0E0AEC00010A0A0A0A20E104010801081000AC
:00000001FF
