:100000000C942A000C9447000C9447000C94470071
:100010000C9447000C9447000C9447000C94470044
:100020000C9447000C9447000C9447000C948401F6
:100030000C9447000C9447000C9447000C94470024
:100040000C9447000C9447000C9447000C94470014
:100050000C94470011241FBECFE5D8E0DEBFCDBF12
:1000600010E0A0E6B0E0E0E3F7E002C005900D92FA
:10007000A836B107D9F711E0A8E6B0E001C01D929B
:10008000A937B107E1F70E9449000C9496030C943C
:1000900000009F92AF92BF92CF92DF92EF92FF92B9
:1000A0000F931F93CF93DF9383E087BB8FE784BBCE
:1000B0008FEF81BB8FE18BBB83B7836083BF89B731
:1000C000816089BF78943E9A87B18E6187B986B185
:1000D000856086B9359A379A369AF0907000CC24AC
:1000E000C3947DE7972E62E3E62E53E6B52E47E1F3
:1000F000D42E3BE3A32E349B43C0F89494B185B136
:10010000349A78940F2D10E0000F111F07581F4FDD
:10011000D82FC0E09E01290F311D40E050E060E083
:1001200078E383E190E00E945903F8013183208352
:10013000F394F0E8FF1609F4FF2460E020E030E0DB
:1001400040E050E0E62FF0E0EE0FFF1FE758FF4FD2
:1001500080819181A0E0B0E0280F391F4A1F5B1F0A
:100160006F5F603879F7F89487E056954795379533
:1001700027958A95D1F73093690020936800789489
:10018000CC9915C0F894809172008F5F80937200B3
:1001900080917200883011F410927200C092650054
:1001A000789490927300809173008823E1F7C89946
:1001B00027C0F89480917200813061F480917400BE
:1001C0008F5F8093740080917400883191F4109255
:1001D00074000FC080917200823059F480916600E3
:1001E0008F5F8093660080916600843611F4C09220
:1001F00066007894E0927300809173008823E1F7A1
:10020000C99927C0F89480917200813061F480917F
:100210007400815080937400809174008F3F91F43A
:10022000D09274000FC080917200823059F4809196
:10023000660081508093660080916600882311F4E7
:10024000B09266007894E0927300809173008823E6
:10025000E1F7CA992BC0F89480917200813081F443
:10026000809175008F5F80937500809175008C334D
:1002700011F41092750010927600109277000FC062
:1002800080917200823059F4809167008F5F809373
:10029000670080916700883111F4109267007894AC
:1002A000E0927300809173008823E1F7CB9923CF0C
:1002B000F89480917200813081F4809175008150B2
:1002C00080937500809175008F3F11F4A0927500A6
:1002D00010927600109277000FC0809172008230E9
:1002E00059F4809167008150809367008091670086
:1002F0008F3F11F4D09267007894E0927300809160
:1003000073008823E1F7F7CE1F920F920FB60F927A
:1003100011245F936F937F938F939F93AF93BF93BA
:1003200085B3807F85BB809172008823F1F5809131
:10033000650081508093650080916500882309F0F5
:1003400086C08AE080936100809168009091690086
:1003500068EE73E00E944503CB016AE070E00E9402
:10036000450380936200809168009091690064E683
:1003700070E00E944503CB016AE070E00E944503F3
:100380008093630080916800909169006AE070E05A
:100390000E944503CB016AE070E00E944503809310
:1003A00064008DE78093650052C0809172008130B7
:1003B00091F1809172008230F1F4809166006AE0E0
:1003C0000E9439030E943903909361008091660076
:1003D0000E94390390936200809167000E94390364
:1003E0000E94390390936300809167000E94390353
:1003F000909364002CC080917200833041F1809111
:100400007200843021F180917200853001F1809179
:1004100072008630D1F4809174006AE00E94390342
:100420000E94390390936100809174000E94390307
:1004300090936200809175000E9439030E943903F5
:100440009093630080917500D1CF8091720080916C
:100450006000813019F48091610014C080916000C7
:10046000823019F4809162000DC080916000833069
:1004700019F48091630006C080916000843051F5CA
:1004800080916400882311F484E125C0813011F447
:1004900087E721C0823011F48CE41DC0833011F451
:1004A00085E419C0843011F487E215C0853011F459
:1004B00085E811C0863011F484E80DC0873011F44E
:1004C00087E509C0883011F484E005C0893011F453
:1004D00085E001C08FEF82BB80917200882329F4F0
:1004E00080916000813039F525C0809172008130A3
:1004F000E9F0809172008230F1F0809172008330D7
:1005000029F4809160008330B1F414C080917200AE
:10051000843061F080917200853041F080917200EA
:10052000863021F080917200873029F4809160003C
:10053000823009F4929880916000813011F4AB9A76
:1005400011C080916000823011F4AA9A0BC0809192
:100550006000833011F4A99A05C080916000843056
:1005600009F4A89A809160008F5F80936000809169
:100570006000853019F481E0809360008091730001
:10058000882329F0809173008150809373008091BB
:100590007200882311F4AC9819C0809172008130E8
:1005A00011F4AC981AC080917200823021F4AC989A
:1005B000AD9AAE981DC080917200833011F4AC9852
:1005C00015C080917200843019F4AC9AAD98F1CFC7
:1005D00080917200853019F4AC9AAD9808C0809172
:1005E0007200863011F4AC9AE3CFAC9AAD9AAE9A11
:1005F000809177008F5F80937700809177008A3FAA
:1006000061F510927700809176008F5F809376007D
:10061000809176008C3309F51092760080917500F8
:100620008F5F80937500809175008C33B1F41092C8
:100630007500809174008F5F8093740080917400C6
:10064000883139F410927400809178008F5F809324
:1006500078008091740080916700BF91AF919F9165
:100660008F917F916F915F910F900FBE0F901F90B0
:100670001895991B79E004C0991F961708F0961BEE
:10068000881F7A95C9F780950895AA1BBB1B51E175
:1006900007C0AA1FBB1FA617B70710F0A61BB70BF2
:1006A000881F991F5A95A9F780959095BC01CD0197
:1006B000089597FB092E05260ED057FD04D014D0BF
:1006C0000AD0001C38F450954095309521953F4F45
:1006D0004F4F5F4F0895F6F790958095709561950F
:1006E0007F4F8F4F9F4F0895A1E21A2EAA1BBB1B6D
:1006F000FD010DC0AA1FBB1FEE1FFF1FA217B307EE
:10070000E407F50720F0A21BB30BE40BF50B661F03
:10071000771F881F991F1A9469F7609570958095C7
:1007200090959B01AC01BD01CF010895F894FFCFD6
:08073000010A0A0A0A2001086F
:00000001FF
