:100000000C942A000C9447000C9447000C94470071
:100010000C9447000C9447000C9447000C94470044
:100020000C9447000C9447000C9447000C94CD01AD
:100030000C9447000C9447000C9447000C94470024
:100040000C9447000C9447000C9447000C94470014
:100050000C94470011241FBECFE5D8E0DEBFCDBF12
:1000600010E0A0E6B0E0E0E6F8E002C005900D92F6
:10007000AA36B107D9F711E0AAE6B0E001C01D9297
:10008000AE37B107E1F70E9449000C942E040C949E
:1000900000007F928F929F92AF92BF92CF92DF9299
:1000A000EF92FF920F931F93CF93DF9383E087BB71
:1000B0008FE784BB8FEF81BB8FE18BBB83B78360FE
:1000C00083BF89B7816089BF78943E9A87B18E617A
:1000D00087B986B1856086B9359A379A369AF09095
:1000E0007200CC24C394EDE79E2E72E3E72E8824A1
:1000F0008A9463E6762E57E1D52E49E0B42E3BE391
:10010000A32E349B43C0F89494B185B1349A78946B
:100110000F2D10E0000F111F02581F4FD82FC0E005
:100120009E01290F311D40E050E060E078E383E15B
:1001300090E00E94F103F80131832083F394F0E80A
:10014000FF1609F4FF2460E020E030E040E050E0DA
:10015000E62FF0E0EE0FFF1FE258FF4F8081918104
:10016000A0E0B0E0280F391F4A1F5B1F6F5F6038A7
:1001700079F7F89487E056954795379527958A95AE
:10018000D1F730936B0020936A007894CC9915C016
:10019000F894809174008F5F809374008091740054
:1001A000883011F410927400C09265007894909297
:1001B0007500809175008823E1F7C8993AC0F894DA
:1001C00080917400813061F4809176008F5F80931C
:1001D000760080917600883129F51092760022C051
:1001E00080917400823061F4809166008F5F80930B
:1001F0006600809166008436A9F4C092660012C041
:1002000080917400833071F4809168008F5F8093D7
:10021000680080916800882329F4809168008F5FCE
:10022000809368007894E09275008091750088232F
:10023000E1F7C99937C0F89480917400813061F476
:1002400080917600815080937600809176008F3F78
:1002500011F5D09276001FC080917400823061F455
:1002600080916600815080936600809166008823AB
:1002700091F4709266000FC080917400833059F43D
:100280008091680081508093680080916800882385
:1002900011F4809268007894E09275008091750066
:1002A0008823E1F7CA993BC0F894809174008130AB
:1002B00081F4809177008F5F809377008091770041
:1002C0008C3311F41092770010927800109279001C
:1002D0001FC080917400823061F4809167008F5F4D
:1002E0008093670080916700883191F410926700D5
:1002F0000FC080917400833059F480917B008F5F30
:1003000080937B0080917B008A3011F410927B00F7
:100310007894E0927500809175008823E1F7CB997D
:10032000F0CEF89480917400813081F48091770050
:10033000815080937700809177008F3F11F4A092D5
:10034000770010927800109279001FC0809174009D
:10035000823061F4809167008150809367008091C2
:1003600067008F3F91F4D09267000FC080917400B6
:10037000833059F480917B00815080937B00809181
:100380007B008F3F11F4B0927B007894E09275006F
:10039000809175008823E1F7B4CE1F920F920FB6BB
:1003A0000F9211242F933F934F935F936F937F93FB
:1003B0008F939F93AF93BF9385B3807F85BB8091CD
:1003C00074008823F1F58091650081508093650069
:1003D00080916500882309F0A2C08AE080936100C3
:1003E00080916A0090916B0068EE73E00E94DD03DB
:1003F000CB016AE070E00E94DD038093620080918F
:100400006A0090916B0064E670E00E94DD03CB010E
:100410006AE070E00E94DD038093630080916A00CF
:1004200090916B006AE070E00E94DD03CB016AE00E
:1004300070E00E94DD03809364008DE78093650087
:100440006EC080917400813009F44DC080917400B9
:100450008230D1F4809166006AE00E94D1030E944C
:10046000D10390936100809166000E94D103909324
:100470006200809167000E94D1030E94D103909393
:100480006300809167001EC0809174008330F9F48E
:100490008091680064E60E94D1036AE00E94D10363
:1004A00090936100809168000E94D1030E94D10363
:1004B00090936200809168000E94D1039093630042
:1004C00080917B000E94D1039093640028C08091AA
:1004D0007400843021F180917400853001F18091A5
:1004E00074008630D1F4809176006AE00E94D103D6
:1004F0000E94D10390936100809176000E94D10305
:1005000090936200809177000E94D1030E94D103F2
:100510009093630080917700D5CF80917400809193
:100520006000813019F48091610014C080916000F6
:10053000823019F4809162000DC080916000833098
:1005400019F48091630006C080916000843051F5F9
:1005500080916400882311F484E125C0813011F476
:1005600087E721C0823011F48CE41DC0833011F480
:1005700085E419C0843011F487E215C0853011F488
:1005800085E811C0863011F484E80DC0873011F47D
:1005900087E509C0883011F484E005C0893011F482
:1005A00085E001C08FEF82BB80917400882329F41D
:1005B00080916000813039F525C0809174008130D0
:1005C000E9F0809174008230F1F080917400833002
:1005D00029F4809160008330B1F414C080917400DC
:1005E000843061F080917400853041F08091740016
:1005F000863021F080917400873029F4809160006A
:10060000823009F4929880916000813011F4AB9AA5
:1006100011C080916000823011F4AA9A0BC08091C1
:100620006000833011F4A99A05C080916000843085
:1006300009F4A89A809160008F5F80936000809198
:100640006000853019F481E080936000809175002E
:10065000882329F0809175008150809375008091E6
:100660007400882311F4AC9819C080917400813013
:1006700011F4AC981AC080917400823021F4AC98C7
:10068000AD9AAE981DC080917400833011F4AC987F
:1006900015C080917400843019F4AC9AAD98F1CFF4
:1006A00080917400853019F4AC9AAD9808C080919F
:1006B0007400863011F4AC9AE3CFAC9AAD9AAE9A3E
:1006C000809179008F5F80937900809179008A3FD3
:1006D00009F042C010927900809178008F5F80937A
:1006E0007800809178008C33B9F510927800809171
:1006F00077008F5F80937700809177008C3361F56E
:1007000010927700809176008F5F809376008091C1
:100710007600883139F41092760080917A008F5FEC
:1007200080937A0090917600809167009817A1F4E9
:10073000C19A80917B002091680049E1849FC001AB
:1007400011244AEF249F90011124820F931F0196D8
:1007500090937D0080937C0080917C0090917D003F
:10076000892B81F080917C0090917D00019790937E
:100770007D0080937C0080917C0090917D00892B8E
:1007800009F4C198BF91AF919F918F917F916F9123
:100790005F914F913F912F910F900FBE0F901F903F
:1007A0001895991B79E004C0991F961708F0961BBD
:1007B000881F7A95C9F780950895AA1BBB1B51E144
:1007C00007C0AA1FBB1FA617B70710F0A61BB70BC1
:1007D000881F991F5A95A9F780959095BC01CD0166
:1007E000089597FB092E05260ED057FD04D014D08E
:1007F0000AD0001C38F450954095309521953F4F14
:100800004F4F5F4F0895F6F79095809570956195DD
:100810007F4F8F4F9F4F0895A1E21A2EAA1BBB1B3B
:10082000FD010DC0AA1FBB1FEE1FFF1FA217B307BC
:10083000E407F50720F0A21BB30BE40BF50B661FD2
:10084000771F881F991F1A9469F760957095809596
:1008500090959B01AC01BD01CF010895F894FFCFA5
:0A086000010A0A0A0A20010801003B
:00000001FF
